{
  "abi": [
    {
      "inputs": [
        {
          "internalType": "address[]",
          "name": "tokenAddresses",
          "type": "address[]"
        },
        {
          "internalType": "address[]",
          "name": "priceFeedAddresses",
          "type": "address[]"
        },
        {
          "internalType": "address",
          "name": "dscAddress",
          "type": "address"
        }
      ],
      "stateMutability": "nonpayable",
      "type": "constructor"
    },
    {
      "inputs": [],
      "name": "DSCEngine_TransferFailed",
      "type": "error"
    },
    {
      "inputs": [
        {
          "internalType": "uint256",
          "name": "_healthFactor",
          "type": "uint256"
        }
      ],
      "name": "DSCEngine__BreaksHealthFactor",
      "type": "error"
    },
    {
      "inputs": [],
      "name": "DSCEngine__NeedsMoreThanZero",
      "type": "error"
    },
    {
      "inputs": [],
      "name": "DSCEngine__NotAllowedToken",
      "type": "error"
    },
    {
      "inputs": [],
      "name": "DSCEngine__TokenAddressesAndPriceFeedAddressesAmountsDontMatch",
      "type": "error"
    },
    {
      "anonymous": false,
      "inputs": [
        {
          "indexed": true,
          "internalType": "address",
          "name": "user",
          "type": "address"
        },
        {
          "indexed": true,
          "internalType": "address",
          "name": "token",
          "type": "address"
        },
        {
          "indexed": true,
          "internalType": "uint256",
          "name": "amount",
          "type": "uint256"
        }
      ],
      "name": "CollateralDeposited",
      "type": "event"
    },
    {
      "inputs": [
        {
          "internalType": "address",
          "name": "tokenCollateralAddress",
          "type": "address"
        },
        {
          "internalType": "uint256",
          "name": "amountCollateral",
          "type": "uint256"
        }
      ],
      "name": "depositCollateral",
      "outputs": [],
      "stateMutability": "nonpayable",
      "type": "function"
    },
    {
      "inputs": [],
      "name": "depositCollateralAndMintDsc",
      "outputs": [],
      "stateMutability": "nonpayable",
      "type": "function"
    },
    {
      "inputs": [
        {
          "internalType": "address",
          "name": "user",
          "type": "address"
        }
      ],
      "name": "getAccountCollateralValue",
      "outputs": [
        {
          "internalType": "uint256",
          "name": "totalCollateralValueInUsd",
          "type": "uint256"
        }
      ],
      "stateMutability": "view",
      "type": "function"
    },
    {
      "inputs": [
        {
          "internalType": "address",
          "name": "token",
          "type": "address"
        },
        {
          "internalType": "uint256",
          "name": "amount",
          "type": "uint256"
        }
      ],
      "name": "getUsdValue",
      "outputs": [
        {
          "internalType": "uint256",
          "name": "",
          "type": "uint256"
        }
      ],
      "stateMutability": "view",
      "type": "function"
    },
    {
      "inputs": [
        {
          "internalType": "uint256",
          "name": "amountDscToMint",
          "type": "uint256"
        }
      ],
      "name": "mintDsc",
      "outputs": [],
      "stateMutability": "nonpayable",
      "type": "function"
    }
  ],
  "bytecode": {
    "object": "0x60a06040523480156200001157600080fd5b50604051620009f9380380620009f9833981016040819052620000349162000248565b600160005581518351146200005c57604051631d8bb3e760e11b815260040160405180910390fd5b60005b835181101562000152578281815181106200007e576200007e620002c4565b6020026020010151600160008684815181106200009f576200009f620002c4565b60200260200101516001600160a01b03166001600160a01b0316815260200190815260200160002060006101000a8154816001600160a01b0302191690836001600160a01b031602179055506004848281518110620001025762000102620002c4565b60209081029190910181015182546001810184556000938452919092200180546001600160a01b0319166001600160a01b03909216919091179055806200014981620002da565b9150506200005f565b506001600160a01b031660805250620003029050565b634e487b7160e01b600052604160045260246000fd5b80516001600160a01b03811681146200019657600080fd5b919050565b600082601f830112620001ad57600080fd5b815160206001600160401b0380831115620001cc57620001cc62000168565b8260051b604051601f19603f83011681018181108482111715620001f457620001f462000168565b6040529384528581018301938381019250878511156200021357600080fd5b83870191505b848210156200023d576200022d826200017e565b8352918301919083019062000219565b979650505050505050565b6000806000606084860312156200025e57600080fd5b83516001600160401b03808211156200027657600080fd5b62000284878388016200019b565b945060208601519150808211156200029b57600080fd5b50620002aa868287016200019b565b925050620002bb604085016200017e565b90509250925092565b634e487b7160e01b600052603260045260246000fd5b600060018201620002fb57634e487b7160e01b600052601160045260246000fd5b5060010190565b6080516106de6200031b600039600050506106de6000f3fe608060405234801561001057600080fd5b50600436106100575760003560e01c80631e2e15e41461005c5780637d1a44501461005e578063a5d5db0c14610083578063c660d11214610096578063c9b7c327146100a9575b600080fd5b005b61007161006c366004610513565b6100bc565b60405190815260200160405180910390f35b61005c610091366004610535565b610144565b6100716100a4366004610535565b6102c3565b61005c6100b736600461055f565b610383565b6000805b60045481101561013e576000600482815481106100df576100df610578565b60009182526020808320909101546001600160a01b0387811684526002835260408085209190921680855292529091205490915061011d82826102c3565b61012790856105a4565b935050508080610136906105b7565b9150506100c0565b50919050565b80806000036101665760405163cb1d3f7d60e01b815260040160405180910390fd5b6001600160a01b038084166000908152600160205260409020548491166101a05760405163540167df60e11b815260040160405180910390fd5b6101a86103e9565b3360009081526002602090815260408083206001600160a01b0388168452909152812080548592906101db9084906105a4565b909155505060405183906001600160a01b0386169033907ff1c0dd7e9b98bbff859029005ef89b127af049cd18df1a8d79f0b7e019911e5690600090a46040516323b872dd60e01b8152336004820152306024820152604481018490526000906001600160a01b038616906323b872dd906064016020604051808303816000875af115801561026e573d6000803e3d6000fd5b505050506040513d601f19601f8201168201806040525081019061029291906105d0565b9050806102b25760405163cb6225d760e01b815260040160405180910390fd5b506102bd6001600055565b50505050565b6001600160a01b03808316600090815260016020526040808220548151633fabe5a360e21b81529151929316918391839163feaf968c9160048082019260a0929091908290030181865afa15801561031f573d6000803e3d6000fd5b505050506040513d601f19601f82011682018060405250810190610343919061060c565b505050915050670de0b6b3a7640000846402540be40083610364919061065c565b61036e919061065c565b6103789190610673565b925050505b92915050565b80806000036103a55760405163cb1d3f7d60e01b815260040160405180910390fd5b6103ad6103e9565b33600090815260036020526040812080548492906103cc9084906105a4565b909155506103db905033610447565b6103e56001600055565b5050565b6002600054036104405760405162461bcd60e51b815260206004820152601f60248201527f5265656e7472616e637947756172643a207265656e7472616e742063616c6c0060448201526064015b60405180910390fd5b6002600055565b600061045282610479565b905060018110156103e55760405163e580cc6160e01b815260048101829052602401610437565b6000806000610487846104cd565b90925090506000606461049b60328461065c565b6104a59190610673565b9050826104ba670de0b6b3a76400008361065c565b6104c49190610695565b95945050505050565b6001600160a01b038116600090815260036020526040812054906104f0836100bc565b9050915091565b80356001600160a01b038116811461050e57600080fd5b919050565b60006020828403121561052557600080fd5b61052e826104f7565b9392505050565b6000806040838503121561054857600080fd5b610551836104f7565b946020939093013593505050565b60006020828403121561057157600080fd5b5035919050565b634e487b7160e01b600052603260045260246000fd5b634e487b7160e01b600052601160045260246000fd5b8082018082111561037d5761037d61058e565b6000600182016105c9576105c961058e565b5060010190565b6000602082840312156105e257600080fd5b8151801515811461052e57600080fd5b805169ffffffffffffffffffff8116811461050e57600080fd5b600080600080600060a0868803121561062457600080fd5b61062d866105f2565b9450602086015193506040860151925060608601519150610650608087016105f2565b90509295509295909350565b808202811582820484141761037d5761037d61058e565b60008261069057634e487b7160e01b600052601260045260246000fd5b500490565b8181038181111561037d5761037d61058e56fea26469706673582212206af7536ea2c0013e9a1b942e96297f4426b4e749a19258a471b98bec17f001d464736f6c63430008130033",
    "linkReferences": {}
  },
  "methodIdentifiers": {
    "depositCollateral(address,uint256)": "a5d5db0c",
    "depositCollateralAndMintDsc()": "1e2e15e4",
    "getAccountCollateralValue(address)": "7d1a4450",
    "getUsdValue(address,uint256)": "c660d112",
    "mintDsc(uint256)": "c9b7c327"
  },
  "id": 8
}